{
    "_format": "hh-sol-artifact-1",
    "contractName": "PixelKingsNFT",
    "sourceName": "contracts/PixelKingsNFT.sol",
    "abi": [
        {
            "inputs": [],
            "stateMutability": "payable",
            "type": "constructor"
        },
        {
            "anonymous": false,
            "inputs": [
                {
                    "indexed": true,
                    "internalType": "address",
                    "name": "owner",
                    "type": "address"
                },
                {
                    "indexed": true,
                    "internalType": "address",
                    "name": "approved",
                    "type": "address"
                },
                {
                    "indexed": true,
                    "internalType": "uint256",
                    "name": "tokenId",
                    "type": "uint256"
                }
            ],
            "name": "Approval",
            "type": "event"
        },
        {
            "anonymous": false,
            "inputs": [
                {
                    "indexed": true,
                    "internalType": "address",
                    "name": "owner",
                    "type": "address"
                },
                {
                    "indexed": true,
                    "internalType": "address",
                    "name": "operator",
                    "type": "address"
                },
                {
                    "indexed": false,
                    "internalType": "bool",
                    "name": "approved",
                    "type": "bool"
                }
            ],
            "name": "ApprovalForAll",
            "type": "event"
        },
        {
            "anonymous": false,
            "inputs": [
                {
                    "indexed": true,
                    "internalType": "address",
                    "name": "previousOwner",
                    "type": "address"
                },
                {
                    "indexed": true,
                    "internalType": "address",
                    "name": "newOwner",
                    "type": "address"
                }
            ],
            "name": "OwnershipTransferred",
            "type": "event"
        },
        {
            "anonymous": false,
            "inputs": [
                {
                    "indexed": true,
                    "internalType": "address",
                    "name": "from",
                    "type": "address"
                },
                {
                    "indexed": true,
                    "internalType": "address",
                    "name": "to",
                    "type": "address"
                },
                {
                    "indexed": true,
                    "internalType": "uint256",
                    "name": "tokenId",
                    "type": "uint256"
                }
            ],
            "name": "Transfer",
            "type": "event"
        },
        {
            "inputs": [
                {
                    "internalType": "address",
                    "name": "to",
                    "type": "address"
                },
                {
                    "internalType": "uint256",
                    "name": "tokenId",
                    "type": "uint256"
                }
            ],
            "name": "approve",
            "outputs": [],
            "stateMutability": "nonpayable",
            "type": "function"
        },
        {
            "inputs": [
                {
                    "internalType": "address",
                    "name": "owner",
                    "type": "address"
                }
            ],
            "name": "balanceOf",
            "outputs": [
                {
                    "internalType": "uint256",
                    "name": "",
                    "type": "uint256"
                }
            ],
            "stateMutability": "view",
            "type": "function"
        },
        {
            "inputs": [
                {
                    "internalType": "uint256",
                    "name": "tokenId",
                    "type": "uint256"
                }
            ],
            "name": "getApproved",
            "outputs": [
                {
                    "internalType": "address",
                    "name": "",
                    "type": "address"
                }
            ],
            "stateMutability": "view",
            "type": "function"
        },
        {
            "inputs": [
                {
                    "internalType": "address",
                    "name": "owner",
                    "type": "address"
                },
                {
                    "internalType": "address",
                    "name": "operator",
                    "type": "address"
                }
            ],
            "name": "isApprovedForAll",
            "outputs": [
                {
                    "internalType": "bool",
                    "name": "",
                    "type": "bool"
                }
            ],
            "stateMutability": "view",
            "type": "function"
        },
        {
            "inputs": [],
            "name": "isPublicMintEnabled",
            "outputs": [
                {
                    "internalType": "bool",
                    "name": "",
                    "type": "bool"
                }
            ],
            "stateMutability": "view",
            "type": "function"
        },
        {
            "inputs": [],
            "name": "maxPerWallet",
            "outputs": [
                {
                    "internalType": "uint256",
                    "name": "",
                    "type": "uint256"
                }
            ],
            "stateMutability": "view",
            "type": "function"
        },
        {
            "inputs": [],
            "name": "maxSupply",
            "outputs": [
                {
                    "internalType": "uint256",
                    "name": "",
                    "type": "uint256"
                }
            ],
            "stateMutability": "view",
            "type": "function"
        },
        {
            "inputs": [
                {
                    "internalType": "uint256",
                    "name": "quantity_",
                    "type": "uint256"
                }
            ],
            "name": "mint",
            "outputs": [],
            "stateMutability": "payable",
            "type": "function"
        },
        {
            "inputs": [],
            "name": "mintPrice",
            "outputs": [
                {
                    "internalType": "uint256",
                    "name": "",
                    "type": "uint256"
                }
            ],
            "stateMutability": "view",
            "type": "function"
        },
        {
            "inputs": [],
            "name": "name",
            "outputs": [
                {
                    "internalType": "string",
                    "name": "",
                    "type": "string"
                }
            ],
            "stateMutability": "view",
            "type": "function"
        },
        {
            "inputs": [],
            "name": "owner",
            "outputs": [
                {
                    "internalType": "address",
                    "name": "",
                    "type": "address"
                }
            ],
            "stateMutability": "view",
            "type": "function"
        },
        {
            "inputs": [
                {
                    "internalType": "uint256",
                    "name": "tokenId",
                    "type": "uint256"
                }
            ],
            "name": "ownerOf",
            "outputs": [
                {
                    "internalType": "address",
                    "name": "",
                    "type": "address"
                }
            ],
            "stateMutability": "view",
            "type": "function"
        },
        {
            "inputs": [],
            "name": "renounceOwnership",
            "outputs": [],
            "stateMutability": "nonpayable",
            "type": "function"
        },
        {
            "inputs": [
                {
                    "internalType": "address",
                    "name": "from",
                    "type": "address"
                },
                {
                    "internalType": "address",
                    "name": "to",
                    "type": "address"
                },
                {
                    "internalType": "uint256",
                    "name": "tokenId",
                    "type": "uint256"
                }
            ],
            "name": "safeTransferFrom",
            "outputs": [],
            "stateMutability": "nonpayable",
            "type": "function"
        },
        {
            "inputs": [
                {
                    "internalType": "address",
                    "name": "from",
                    "type": "address"
                },
                {
                    "internalType": "address",
                    "name": "to",
                    "type": "address"
                },
                {
                    "internalType": "uint256",
                    "name": "tokenId",
                    "type": "uint256"
                },
                {
                    "internalType": "bytes",
                    "name": "_data",
                    "type": "bytes"
                }
            ],
            "name": "safeTransferFrom",
            "outputs": [],
            "stateMutability": "nonpayable",
            "type": "function"
        },
        {
            "inputs": [
                {
                    "internalType": "address",
                    "name": "operator",
                    "type": "address"
                },
                {
                    "internalType": "bool",
                    "name": "approved",
                    "type": "bool"
                }
            ],
            "name": "setApprovalForAll",
            "outputs": [],
            "stateMutability": "nonpayable",
            "type": "function"
        },
        {
            "inputs": [
                {
                    "internalType": "string",
                    "name": "baseTokenUri_",
                    "type": "string"
                }
            ],
            "name": "setBaseTokenUri",
            "outputs": [],
            "stateMutability": "nonpayable",
            "type": "function"
        },
        {
            "inputs": [
                {
                    "internalType": "bool",
                    "name": "isPublicMintEnabled_",
                    "type": "bool"
                }
            ],
            "name": "setIsPublicMintEnabled",
            "outputs": [],
            "stateMutability": "nonpayable",
            "type": "function"
        },
        {
            "inputs": [
                {
                    "internalType": "bytes4",
                    "name": "interfaceId",
                    "type": "bytes4"
                }
            ],
            "name": "supportsInterface",
            "outputs": [
                {
                    "internalType": "bool",
                    "name": "",
                    "type": "bool"
                }
            ],
            "stateMutability": "view",
            "type": "function"
        },
        {
            "inputs": [],
            "name": "symbol",
            "outputs": [
                {
                    "internalType": "string",
                    "name": "",
                    "type": "string"
                }
            ],
            "stateMutability": "view",
            "type": "function"
        },
        {
            "inputs": [
                {
                    "internalType": "uint256",
                    "name": "tokenId_",
                    "type": "uint256"
                }
            ],
            "name": "tokenURI",
            "outputs": [
                {
                    "internalType": "string",
                    "name": "",
                    "type": "string"
                }
            ],
            "stateMutability": "view",
            "type": "function"
        },
        {
            "inputs": [],
            "name": "totalSupply",
            "outputs": [
                {
                    "internalType": "uint256",
                    "name": "",
                    "type": "uint256"
                }
            ],
            "stateMutability": "view",
            "type": "function"
        },
        {
            "inputs": [
                {
                    "internalType": "address",
                    "name": "from",
                    "type": "address"
                },
                {
                    "internalType": "address",
                    "name": "to",
                    "type": "address"
                },
                {
                    "internalType": "uint256",
                    "name": "tokenId",
                    "type": "uint256"
                }
            ],
            "name": "transferFrom",
            "outputs": [],
            "stateMutability": "nonpayable",
            "type": "function"
        },
        {
            "inputs": [
                {
                    "internalType": "address",
                    "name": "newOwner",
                    "type": "address"
                }
            ],
            "name": "transferOwnership",
            "outputs": [],
            "stateMutability": "nonpayable",
            "type": "function"
        },
        {
            "inputs": [
                {
                    "internalType": "address",
                    "name": "",
                    "type": "address"
                }
            ],
            "name": "walletMints",
            "outputs": [
                {
                    "internalType": "uint256",
                    "name": "",
                    "type": "uint256"
                }
            ],
            "stateMutability": "view",
            "type": "function"
        },
        {
            "inputs": [],
            "name": "withdraw",
            "outputs": [],
            "stateMutability": "nonpayable",
            "type": "function"
        },
        {
            "inputs": [],
            "name": "withdrawWallet",
            "outputs": [
                {
                    "internalType": "address",
                    "name": "",
                    "type": "address"
                }
            ],
            "stateMutability": "view",
            "type": "function"
        }
    ],
    "bytecode": "0x60806040526040518060400160405280600981526020017f506978656c4b696e6700000000000000000000000000000000000000000000008152506040518060400160405280600581526020017f244b4e4753000000000000000000000000000000000000000000000000000000815250816000908051906020019062000088929190620001bf565b508060019080519060200190620000a1929190620001bf565b505050620000c4620000b8620000f160201b60201c565b620000f960201b60201c565b66470de4df82000060078190555060006008819055506103e86009819055506003600a81905550620002d4565b600033905090565b6000600660009054906101000a900473ffffffffffffffffffffffffffffffffffffffff16905081600660006101000a81548173ffffffffffffffffffffffffffffffffffffffff021916908373ffffffffffffffffffffffffffffffffffffffff1602179055508173ffffffffffffffffffffffffffffffffffffffff168173ffffffffffffffffffffffffffffffffffffffff167f8be0079c531659141344cd1fd0a4f28419497f9722a3daafe3b4186f6b6457e060405160405180910390a35050565b828054620001cd906200026f565b90600052602060002090601f016020900481019282620001f157600085556200023d565b82601f106200020c57805160ff19168380011785556200023d565b828001600101855582156200023d579182015b828111156200023c5782518255916020019190600101906200021f565b5b5090506200024c919062000250565b5090565b5b808211156200026b57600081600090555060010162000251565b5090565b600060028204905060018216806200028857607f821691505b602082108114156200029f576200029e620002a5565b5b50919050565b7f4e487b7100000000000000000000000000000000000000000000000000000000600052602260045260246000fd5b61329380620002e46000396000f3fe60806040526004361061019c5760003560e01c806370a08231116100ec578063a22cb4651161008a578063d5abeb0111610064578063d5abeb0114610593578063e985e9c5146105be578063f0293fd3146105fb578063f2fde38b146106385761019c565b8063a22cb46514610504578063b88d4fde1461052d578063c87b56dd146105565761019c565b80638da5cb5b116100c65780638da5cb5b1461046957806395652cfa1461049457806395d89b41146104bd578063a0712d68146104e85761019c565b806370a08231146103ea578063715018a61461042757806385d178f41461043e5761019c565b80632373ac221161015957806342842e0e1161013357806342842e0e1461032e578063453c2310146103575780636352211e146103825780636817c76c146103bf5761019c565b80632373ac22146102c557806323b872dd146102ee5780633ccfd60b146103175761019c565b80630116bc2d146101a157806301ffc9a7146101cc57806306fdde0314610209578063081812fc14610234578063095ea7b31461027157806318160ddd1461029a575b600080fd5b3480156101ad57600080fd5b506101b6610661565b6040516101c3919061272d565b60405180910390f35b3480156101d857600080fd5b506101f360048036038101906101ee9190612273565b610674565b604051610200919061272d565b60405180910390f35b34801561021557600080fd5b5061021e610756565b60405161022b9190612748565b60405180910390f35b34801561024057600080fd5b5061025b6004803603810190610256919061230a565b6107e8565b60405161026891906126c6565b60405180910390f35b34801561027d57600080fd5b506102986004803603810190610293919061220e565b61086d565b005b3480156102a657600080fd5b506102af610985565b6040516102bc91906129ea565b60405180910390f35b3480156102d157600080fd5b506102ec60048036038101906102e7919061224a565b61098b565b005b3480156102fa57600080fd5b5061031560048036038101906103109190612108565b610a24565b005b34801561032357600080fd5b5061032c610a84565b005b34801561033a57600080fd5b5061035560048036038101906103509190612108565b610bd1565b005b34801561036357600080fd5b5061036c610bf1565b60405161037991906129ea565b60405180910390f35b34801561038e57600080fd5b506103a960048036038101906103a4919061230a565b610bf7565b6040516103b691906126c6565b60405180910390f35b3480156103cb57600080fd5b506103d4610ca9565b6040516103e191906129ea565b60405180910390f35b3480156103f657600080fd5b50610411600480360381019061040c91906120a3565b610caf565b60405161041e91906129ea565b60405180910390f35b34801561043357600080fd5b5061043c610d67565b005b34801561044a57600080fd5b50610453610def565b60405161046091906126c6565b60405180910390f35b34801561047557600080fd5b5061047e610e15565b60405161048b91906126c6565b60405180910390f35b3480156104a057600080fd5b506104bb60048036038101906104b691906122c5565b610e3f565b005b3480156104c957600080fd5b506104d2610ed1565b6040516104df9190612748565b60405180910390f35b61050260048036038101906104fd919061230a565b610f63565b005b34801561051057600080fd5b5061052b600480360381019061052691906121d2565b61113a565b005b34801561053957600080fd5b50610554600480360381019061054f9190612157565b611150565b005b34801561056257600080fd5b5061057d6004803603810190610578919061230a565b6111b2565b60405161058a9190612748565b60405180910390f35b34801561059f57600080fd5b506105a86111b9565b6040516105b591906129ea565b60405180910390f35b3480156105ca57600080fd5b506105e560048036038101906105e091906120cc565b6111bf565b6040516105f2919061272d565b60405180910390f35b34801561060757600080fd5b50610622600480360381019061061d91906120a3565b611253565b60405161062f91906129ea565b60405180910390f35b34801561064457600080fd5b5061065f600480360381019061065a91906120a3565b61126b565b005b600b60009054906101000a900460ff1681565b60007f80ac58cd000000000000000000000000000000000000000000000000000000007bffffffffffffffffffffffffffffffffffffffffffffffffffffffff1916827bffffffffffffffffffffffffffffffffffffffffffffffffffffffff1916148061073f57507f5b5e139f000000000000000000000000000000000000000000000000000000007bffffffffffffffffffffffffffffffffffffffffffffffffffffffff1916827bffffffffffffffffffffffffffffffffffffffffffffffffffffffff1916145b8061074f575061074e82611363565b5b9050919050565b60606000805461076590612bde565b80601f016020809104026020016040519081016040528092919081815260200182805461079190612bde565b80156107de5780601f106107b3576101008083540402835291602001916107de565b820191906000526020600020905b8154815290600101906020018083116107c157829003601f168201915b5050505050905090565b60006107f3826113cd565b610832576040517f08c379a00000000000000000000000000000000000000000000000000000000081526004016108299061292a565b60405180910390fd5b6004600083815260200190815260200160002060009054906101000a900473ffffffffffffffffffffffffffffffffffffffff169050919050565b600061087882610bf7565b90508073ffffffffffffffffffffffffffffffffffffffff168373ffffffffffffffffffffffffffffffffffffffff1614156108e9576040517f08c379a00000000000000000000000000000000000000000000000000000000081526004016108e09061296a565b60405180910390fd5b8073ffffffffffffffffffffffffffffffffffffffff16610908611439565b73ffffffffffffffffffffffffffffffffffffffff161480610937575061093681610931611439565b6111bf565b5b610976576040517f08c379a000000000000000000000000000000000000000000000000000000000815260040161096d906128aa565b60405180910390fd5b6109808383611441565b505050565b60085481565b610993611439565b73ffffffffffffffffffffffffffffffffffffffff166109b1610e15565b73ffffffffffffffffffffffffffffffffffffffff1614610a07576040517f08c379a00000000000000000000000000000000000000000000000000000000081526004016109fe9061294a565b60405180910390fd5b80600b60006101000a81548160ff02191690831515021790555050565b610a35610a2f611439565b826114fa565b610a74576040517f08c379a0000000000000000000000000000000000000000000000000000000008152600401610a6b9061298a565b60405180910390fd5b610a7f8383836115d8565b505050565b610a8c611439565b73ffffffffffffffffffffffffffffffffffffffff16610aaa610e15565b73ffffffffffffffffffffffffffffffffffffffff1614610b00576040517f08c379a0000000000000000000000000000000000000000000000000000000008152600401610af79061294a565b60405180910390fd5b6000600d60009054906101000a900473ffffffffffffffffffffffffffffffffffffffff1673ffffffffffffffffffffffffffffffffffffffff1647604051610b48906126b1565b60006040518083038185875af1925050503d8060008114610b85576040519150601f19603f3d011682016040523d82523d6000602084013e610b8a565b606091505b5050905080610bce576040517f08c379a0000000000000000000000000000000000000000000000000000000008152600401610bc5906129ca565b60405180910390fd5b50565b610bec83838360405180602001604052806000815250611150565b505050565b600a5481565b6000806002600084815260200190815260200160002060009054906101000a900473ffffffffffffffffffffffffffffffffffffffff169050600073ffffffffffffffffffffffffffffffffffffffff168173ffffffffffffffffffffffffffffffffffffffff161415610ca0576040517f08c379a0000000000000000000000000000000000000000000000000000000008152600401610c97906128ea565b60405180910390fd5b80915050919050565b60075481565b60008073ffffffffffffffffffffffffffffffffffffffff168273ffffffffffffffffffffffffffffffffffffffff161415610d20576040517f08c379a0000000000000000000000000000000000000000000000000000000008152600401610d17906128ca565b60405180910390fd5b600360008373ffffffffffffffffffffffffffffffffffffffff1673ffffffffffffffffffffffffffffffffffffffff168152602001908152602001600020549050919050565b610d6f611439565b73ffffffffffffffffffffffffffffffffffffffff16610d8d610e15565b73ffffffffffffffffffffffffffffffffffffffff1614610de3576040517f08c379a0000000000000000000000000000000000000000000000000000000008152600401610dda9061294a565b60405180910390fd5b610ded600061183f565b565b600d60009054906101000a900473ffffffffffffffffffffffffffffffffffffffff1681565b6000600660009054906101000a900473ffffffffffffffffffffffffffffffffffffffff16905090565b610e47611439565b73ffffffffffffffffffffffffffffffffffffffff16610e65610e15565b73ffffffffffffffffffffffffffffffffffffffff1614610ebb576040517f08c379a0000000000000000000000000000000000000000000000000000000008152600401610eb29061294a565b60405180910390fd5b8181600c9190610ecc929190611ee5565b505050565b606060018054610ee090612bde565b80601f0160208091040260200160405190810160405280929190818152602001828054610f0c90612bde565b8015610f595780601f10610f2e57610100808354040283529160200191610f59565b820191906000526020600020905b815481529060010190602001808311610f3c57829003601f168201915b5050505050905090565b600b60009054906101000a900460ff16610fb2576040517f08c379a0000000000000000000000000000000000000000000000000000000008152600401610fa9906129aa565b60405180910390fd5b60075481610fc09190612a9e565b3414611001576040517f08c379a0000000000000000000000000000000000000000000000000000000008152600401610ff89061288a565b60405180910390fd5b600954816008546110129190612a9e565b1115611053576040517f08c379a000000000000000000000000000000000000000000000000000000000815260040161104a9061284a565b60405180910390fd5b600a5481600e60003373ffffffffffffffffffffffffffffffffffffffff1673ffffffffffffffffffffffffffffffffffffffff168152602001908152602001600020546110a19190612a9e565b11156110e2576040517f08c379a00000000000000000000000000000000000000000000000000000000081526004016110d99061286a565b60405180910390fd5b60005b8181101561113657600060016008546110fe9190612a9e565b90506008600081548092919061111390612c41565b91905055506111223382611905565b50808061112e90612c41565b9150506110e5565b5050565b61114c611145611439565b8383611923565b5050565b61116161115b611439565b836114fa565b6111a0576040517f08c379a00000000000000000000000000000000000000000000000000000000081526004016111979061298a565b60405180910390fd5b6111ac84848484611a90565b50505050565b6060919050565b60095481565b6000600560008473ffffffffffffffffffffffffffffffffffffffff1673ffffffffffffffffffffffffffffffffffffffff16815260200190815260200160002060008373ffffffffffffffffffffffffffffffffffffffff1673ffffffffffffffffffffffffffffffffffffffff16815260200190815260200160002060009054906101000a900460ff16905092915050565b600e6020528060005260406000206000915090505481565b611273611439565b73ffffffffffffffffffffffffffffffffffffffff16611291610e15565b73ffffffffffffffffffffffffffffffffffffffff16146112e7576040517f08c379a00000000000000000000000000000000000000000000000000000000081526004016112de9061294a565b60405180910390fd5b600073ffffffffffffffffffffffffffffffffffffffff168173ffffffffffffffffffffffffffffffffffffffff161415611357576040517f08c379a000000000000000000000000000000000000000000000000000000000815260040161134e9061278a565b60405180910390fd5b6113608161183f565b50565b60007f01ffc9a7000000000000000000000000000000000000000000000000000000007bffffffffffffffffffffffffffffffffffffffffffffffffffffffff1916827bffffffffffffffffffffffffffffffffffffffffffffffffffffffff1916149050919050565b60008073ffffffffffffffffffffffffffffffffffffffff166002600084815260200190815260200160002060009054906101000a900473ffffffffffffffffffffffffffffffffffffffff1673ffffffffffffffffffffffffffffffffffffffff1614159050919050565b600033905090565b816004600083815260200190815260200160002060006101000a81548173ffffffffffffffffffffffffffffffffffffffff021916908373ffffffffffffffffffffffffffffffffffffffff160217905550808273ffffffffffffffffffffffffffffffffffffffff166114b483610bf7565b73ffffffffffffffffffffffffffffffffffffffff167f8c5be1e5ebec7d5bd14f71427d1e84f3dd0314c0f7b2291e5b200ac8c7c3b92560405160405180910390a45050565b6000611505826113cd565b611544576040517f08c379a000000000000000000000000000000000000000000000000000000000815260040161153b9061282a565b60405180910390fd5b600061154f83610bf7565b90508073ffffffffffffffffffffffffffffffffffffffff168473ffffffffffffffffffffffffffffffffffffffff161480611591575061159081856111bf565b5b806115cf57508373ffffffffffffffffffffffffffffffffffffffff166115b7846107e8565b73ffffffffffffffffffffffffffffffffffffffff16145b91505092915050565b8273ffffffffffffffffffffffffffffffffffffffff166115f882610bf7565b73ffffffffffffffffffffffffffffffffffffffff161461164e576040517f08c379a0000000000000000000000000000000000000000000000000000000008152600401611645906127aa565b60405180910390fd5b600073ffffffffffffffffffffffffffffffffffffffff168273ffffffffffffffffffffffffffffffffffffffff1614156116be576040517f08c379a00000000000000000000000000000000000000000000000000000000081526004016116b5906127ea565b60405180910390fd5b6116c9838383611aec565b6116d4600082611441565b6001600360008573ffffffffffffffffffffffffffffffffffffffff1673ffffffffffffffffffffffffffffffffffffffff16815260200190815260200160002060008282546117249190612af4565b925050819055506001600360008473ffffffffffffffffffffffffffffffffffffffff1673ffffffffffffffffffffffffffffffffffffffff168152602001908152602001600020600082825461177b9190612a9e565b92505081905550816002600083815260200190815260200160002060006101000a81548173ffffffffffffffffffffffffffffffffffffffff021916908373ffffffffffffffffffffffffffffffffffffffff160217905550808273ffffffffffffffffffffffffffffffffffffffff168473ffffffffffffffffffffffffffffffffffffffff167fddf252ad1be2c89b69c2b068fc378daa952ba7f163c4a11628f55a4df523b3ef60405160405180910390a461183a838383611af1565b505050565b6000600660009054906101000a900473ffffffffffffffffffffffffffffffffffffffff16905081600660006101000a81548173ffffffffffffffffffffffffffffffffffffffff021916908373ffffffffffffffffffffffffffffffffffffffff1602179055508173ffffffffffffffffffffffffffffffffffffffff168173ffffffffffffffffffffffffffffffffffffffff167f8be0079c531659141344cd1fd0a4f28419497f9722a3daafe3b4186f6b6457e060405160405180910390a35050565b61191f828260405180602001604052806000815250611af6565b5050565b8173ffffffffffffffffffffffffffffffffffffffff168373ffffffffffffffffffffffffffffffffffffffff161415611992576040517f08c379a00000000000000000000000000000000000000000000000000000000081526004016119899061280a565b60405180910390fd5b80600560008573ffffffffffffffffffffffffffffffffffffffff1673ffffffffffffffffffffffffffffffffffffffff16815260200190815260200160002060008473ffffffffffffffffffffffffffffffffffffffff1673ffffffffffffffffffffffffffffffffffffffff16815260200190815260200160002060006101000a81548160ff0219169083151502179055508173ffffffffffffffffffffffffffffffffffffffff168373ffffffffffffffffffffffffffffffffffffffff167f17307eab39ab6107e8899845ad3d59bd9653f200f220920489ca2b5937696c3183604051611a83919061272d565b60405180910390a3505050565b611a9b8484846115d8565b611aa784848484611b51565b611ae6576040517f08c379a0000000000000000000000000000000000000000000000000000000008152600401611add9061276a565b60405180910390fd5b50505050565b505050565b505050565b611b008383611ce8565b611b0d6000848484611b51565b611b4c576040517f08c379a0000000000000000000000000000000000000000000000000000000008152600401611b439061276a565b60405180910390fd5b505050565b6000611b728473ffffffffffffffffffffffffffffffffffffffff16611ec2565b15611cdb578373ffffffffffffffffffffffffffffffffffffffff1663150b7a02611b9b611439565b8786866040518563ffffffff1660e01b8152600401611bbd94939291906126e1565b602060405180830381600087803b158015611bd757600080fd5b505af1925050508015611c0857506040513d601f19601f82011682018060405250810190611c05919061229c565b60015b611c8b573d8060008114611c38576040519150601f19603f3d011682016040523d82523d6000602084013e611c3d565b606091505b50600081511415611c83576040517f08c379a0000000000000000000000000000000000000000000000000000000008152600401611c7a9061276a565b60405180910390fd5b805181602001fd5b63150b7a0260e01b7bffffffffffffffffffffffffffffffffffffffffffffffffffffffff1916817bffffffffffffffffffffffffffffffffffffffffffffffffffffffff191614915050611ce0565b600190505b949350505050565b600073ffffffffffffffffffffffffffffffffffffffff168273ffffffffffffffffffffffffffffffffffffffff161415611d58576040517f08c379a0000000000000000000000000000000000000000000000000000000008152600401611d4f9061290a565b60405180910390fd5b611d61816113cd565b15611da1576040517f08c379a0000000000000000000000000000000000000000000000000000000008152600401611d98906127ca565b60405180910390fd5b611dad60008383611aec565b6001600360008473ffffffffffffffffffffffffffffffffffffffff1673ffffffffffffffffffffffffffffffffffffffff1681526020019081526020016000206000828254611dfd9190612a9e565b92505081905550816002600083815260200190815260200160002060006101000a81548173ffffffffffffffffffffffffffffffffffffffff021916908373ffffffffffffffffffffffffffffffffffffffff160217905550808273ffffffffffffffffffffffffffffffffffffffff16600073ffffffffffffffffffffffffffffffffffffffff167fddf252ad1be2c89b69c2b068fc378daa952ba7f163c4a11628f55a4df523b3ef60405160405180910390a4611ebe60008383611af1565b5050565b6000808273ffffffffffffffffffffffffffffffffffffffff163b119050919050565b828054611ef190612bde565b90600052602060002090601f016020900481019282611f135760008555611f5a565b82601f10611f2c57803560ff1916838001178555611f5a565b82800160010185558215611f5a579182015b82811115611f59578235825591602001919060010190611f3e565b5b509050611f679190611f6b565b5090565b5b80821115611f84576000816000905550600101611f6c565b5090565b6000611f9b611f9684612a2a565b612a05565b905082815260208101848484011115611fb357600080fd5b611fbe848285612b9c565b509392505050565b600081359050611fd581613201565b92915050565b600081359050611fea81613218565b92915050565b600081359050611fff8161322f565b92915050565b6000815190506120148161322f565b92915050565b600082601f83011261202b57600080fd5b813561203b848260208601611f88565b91505092915050565b60008083601f84011261205657600080fd5b8235905067ffffffffffffffff81111561206f57600080fd5b60208301915083600182028301111561208757600080fd5b9250929050565b60008135905061209d81613246565b92915050565b6000602082840312156120b557600080fd5b60006120c384828501611fc6565b91505092915050565b600080604083850312156120df57600080fd5b60006120ed85828601611fc6565b92505060206120fe85828601611fc6565b9150509250929050565b60008060006060848603121561211d57600080fd5b600061212b86828701611fc6565b935050602061213c86828701611fc6565b925050604061214d8682870161208e565b9150509250925092565b6000806000806080858703121561216d57600080fd5b600061217b87828801611fc6565b945050602061218c87828801611fc6565b935050604061219d8782880161208e565b925050606085013567ffffffffffffffff8111156121ba57600080fd5b6121c68782880161201a565b91505092959194509250565b600080604083850312156121e557600080fd5b60006121f385828601611fc6565b925050602061220485828601611fdb565b9150509250929050565b6000806040838503121561222157600080fd5b600061222f85828601611fc6565b92505060206122408582860161208e565b9150509250929050565b60006020828403121561225c57600080fd5b600061226a84828501611fdb565b91505092915050565b60006020828403121561228557600080fd5b600061229384828501611ff0565b91505092915050565b6000602082840312156122ae57600080fd5b60006122bc84828501612005565b91505092915050565b600080602083850312156122d857600080fd5b600083013567ffffffffffffffff8111156122f257600080fd5b6122fe85828601612044565b92509250509250929050565b60006020828403121561231c57600080fd5b600061232a8482850161208e565b91505092915050565b61233c81612b28565b82525050565b61234b81612b3a565b82525050565b600061235c82612a5b565b6123668185612a71565b9350612376818560208601612bab565b61237f81612d17565b840191505092915050565b600061239582612a66565b61239f8185612a8d565b93506123af818560208601612bab565b6123b881612d17565b840191505092915050565b60006123d0603283612a8d565b91506123db82612d28565b604082019050919050565b60006123f3602683612a8d565b91506123fe82612d77565b604082019050919050565b6000612416602583612a8d565b915061242182612dc6565b604082019050919050565b6000612439601c83612a8d565b915061244482612e15565b602082019050919050565b600061245c602483612a8d565b915061246782612e3e565b604082019050919050565b600061247f601983612a8d565b915061248a82612e8d565b602082019050919050565b60006124a2602c83612a8d565b91506124ad82612eb6565b604082019050919050565b60006124c5600883612a8d565b91506124d082612f05565b602082019050919050565b60006124e8601783612a8d565b91506124f382612f2e565b602082019050919050565b600061250b601283612a8d565b915061251682612f57565b602082019050919050565b600061252e603883612a8d565b915061253982612f80565b604082019050919050565b6000612551602a83612a8d565b915061255c82612fcf565b604082019050919050565b6000612574602983612a8d565b915061257f8261301e565b604082019050919050565b6000612597602083612a8d565b91506125a28261306d565b602082019050919050565b60006125ba602c83612a8d565b91506125c582613096565b604082019050919050565b60006125dd602083612a8d565b91506125e8826130e5565b602082019050919050565b6000612600602183612a8d565b915061260b8261310e565b604082019050919050565b6000612623600083612a82565b915061262e8261315d565b600082019050919050565b6000612646603183612a8d565b915061265182613160565b604082019050919050565b6000612669601a83612a8d565b9150612674826131af565b602082019050919050565b600061268c600f83612a8d565b9150612697826131d8565b602082019050919050565b6126ab81612b92565b82525050565b60006126bc82612616565b9150819050919050565b60006020820190506126db6000830184612333565b92915050565b60006080820190506126f66000830187612333565b6127036020830186612333565b61271060408301856126a2565b81810360608301526127228184612351565b905095945050505050565b60006020820190506127426000830184612342565b92915050565b60006020820190508181036000830152612762818461238a565b905092915050565b60006020820190508181036000830152612783816123c3565b9050919050565b600060208201905081810360008301526127a3816123e6565b9050919050565b600060208201905081810360008301526127c381612409565b9050919050565b600060208201905081810360008301526127e38161242c565b9050919050565b600060208201905081810360008301526128038161244f565b9050919050565b6000602082019050818103600083015261282381612472565b9050919050565b6000602082019050818103600083015261284381612495565b9050919050565b60006020820190508181036000830152612863816124b8565b9050919050565b60006020820190508181036000830152612883816124db565b9050919050565b600060208201905081810360008301526128a3816124fe565b9050919050565b600060208201905081810360008301526128c381612521565b9050919050565b600060208201905081810360008301526128e381612544565b9050919050565b6000602082019050818103600083015261290381612567565b9050919050565b600060208201905081810360008301526129238161258a565b9050919050565b60006020820190508181036000830152612943816125ad565b9050919050565b60006020820190508181036000830152612963816125d0565b9050919050565b60006020820190508181036000830152612983816125f3565b9050919050565b600060208201905081810360008301526129a381612639565b9050919050565b600060208201905081810360008301526129c38161265c565b9050919050565b600060208201905081810360008301526129e38161267f565b9050919050565b60006020820190506129ff60008301846126a2565b92915050565b6000612a0f612a20565b9050612a1b8282612c10565b919050565b6000604051905090565b600067ffffffffffffffff821115612a4557612a44612ce8565b5b612a4e82612d17565b9050602081019050919050565b600081519050919050565b600081519050919050565b600082825260208201905092915050565b600081905092915050565b600082825260208201905092915050565b6000612aa982612b92565b9150612ab483612b92565b9250827fffffffffffffffffffffffffffffffffffffffffffffffffffffffffffffffff03821115612ae957612ae8612c8a565b5b828201905092915050565b6000612aff82612b92565b9150612b0a83612b92565b925082821015612b1d57612b1c612c8a565b5b828203905092915050565b6000612b3382612b72565b9050919050565b60008115159050919050565b60007fffffffff0000000000000000000000000000000000000000000000000000000082169050919050565b600073ffffffffffffffffffffffffffffffffffffffff82169050919050565b6000819050919050565b82818337600083830152505050565b60005b83811015612bc9578082015181840152602081019050612bae565b83811115612bd8576000848401525b50505050565b60006002820490506001821680612bf657607f821691505b60208210811415612c0a57612c09612cb9565b5b50919050565b612c1982612d17565b810181811067ffffffffffffffff82111715612c3857612c37612ce8565b5b80604052505050565b6000612c4c82612b92565b91507fffffffffffffffffffffffffffffffffffffffffffffffffffffffffffffffff821415612c7f57612c7e612c8a565b5b600182019050919050565b7f4e487b7100000000000000000000000000000000000000000000000000000000600052601160045260246000fd5b7f4e487b7100000000000000000000000000000000000000000000000000000000600052602260045260246000fd5b7f4e487b7100000000000000000000000000000000000000000000000000000000600052604160045260246000fd5b6000601f19601f8301169050919050565b7f4552433732313a207472616e7366657220746f206e6f6e20455243373231526560008201527f63656976657220696d706c656d656e7465720000000000000000000000000000602082015250565b7f4f776e61626c653a206e6577206f776e657220697320746865207a65726f206160008201527f6464726573730000000000000000000000000000000000000000000000000000602082015250565b7f4552433732313a207472616e736665722066726f6d20696e636f72726563742060008201527f6f776e6572000000000000000000000000000000000000000000000000000000602082015250565b7f4552433732313a20746f6b656e20616c7265616479206d696e74656400000000600082015250565b7f4552433732313a207472616e7366657220746f20746865207a65726f2061646460008201527f7265737300000000000000000000000000000000000000000000000000000000602082015250565b7f4552433732313a20617070726f766520746f2063616c6c657200000000000000600082015250565b7f4552433732313a206f70657261746f7220717565727920666f72206e6f6e657860008201527f697374656e7420746f6b656e0000000000000000000000000000000000000000602082015250565b7f736f6c64206f7574000000000000000000000000000000000000000000000000600082015250565b7f6d6178207065722077616c6c6574206578636565646564000000000000000000600082015250565b7f696e76616c6964206d696e742070726963650000000000000000000000000000600082015250565b7f4552433732313a20617070726f76652063616c6c6572206973206e6f74206f7760008201527f6e6572206e6f7220617070726f76656420666f7220616c6c0000000000000000602082015250565b7f4552433732313a2062616c616e636520717565727920666f7220746865207a6560008201527f726f206164647265737300000000000000000000000000000000000000000000602082015250565b7f4552433732313a206f776e657220717565727920666f72206e6f6e657869737460008201527f656e7420746f6b656e0000000000000000000000000000000000000000000000602082015250565b7f4552433732313a206d696e7420746f20746865207a65726f2061646472657373600082015250565b7f4552433732313a20617070726f76656420717565727920666f72206e6f6e657860008201527f697374656e7420746f6b656e0000000000000000000000000000000000000000602082015250565b7f4f776e61626c653a2063616c6c6572206973206e6f7420746865206f776e6572600082015250565b7f4552433732313a20617070726f76616c20746f2063757272656e74206f776e6560008201527f7200000000000000000000000000000000000000000000000000000000000000602082015250565b50565b7f4552433732313a207472616e736665722063616c6c6572206973206e6f74206f60008201527f776e6572206e6f7220617070726f766564000000000000000000000000000000602082015250565b7f7075626c6963206d696e74696e672069732064697361626c6564000000000000600082015250565b7f7769746864726177206661696c65640000000000000000000000000000000000600082015250565b61320a81612b28565b811461321557600080fd5b50565b61322181612b3a565b811461322c57600080fd5b50565b61323881612b46565b811461324357600080fd5b50565b61324f81612b92565b811461325a57600080fd5b5056fea2646970667358221220e5c183ce85ae2a9e06862b7ad324f1630968a21baece09c654d27475b68fe1fe64736f6c63430008040033",
    "linkReferences": {},
    "deployedLinkReferences": {}
}